:020000040800F2
:1000000000500020F13B00081D1400081F140008D8
:100010002114000823140008251400080000000023
:10002000000000000000000000000000271400088D
:1000300029140008000000002B1400082D140008EB
:10004000393C0008393C0008393C0008393C0008BC
:10005000393C0008393C00089D140008393C000870
:10006000393C0008393C0008393C0008393C00089C
:10007000393C0008393C0008393C0008393C00088C
:10008000393C0008393C0008393C0008393C00087C
:10009000393C0008393C0008393C0008A714000826
:1000A000393C0008393C0008393C0008393C00085C
:1000B000393C0008393C0008B1140008393C0008FC
:1000C000393C0008393C0008393C0008393C00083C
:1000D000393C0008393C0008393C0008393C00082C
:1000E000393C0008393C0008393C00080000000099
:1000F0000000000000000000000000000000000000
:0C01000000000000000000005FF808F1A3
:100110004FF0FF0C1CEAD0521EBF1CEAD15392EAEA
:100120000C0F93EA0C0F6FD01A4480EA010C4002C6
:1001300018BF5FEA41211ED04FF0006343EA501020
:1001400043EA5111A0FB01310CF00040B1F5000F62
:100150003EBF490041EAD3715B0040EA010062F111
:100160007F02FD2A1DD8B3F1004F40EBC25008BFFB
:1001700020F00100704790F0000F0CF0004C08BF19
:1001800049024CEA502040EA51207F3AC2BFD2F1E6
:10019000FF0340EAC250704740F400004FF00003F4
:1001A000013A5DDC12F1190FDCBF00F0004070472E
:1001B000C2F10002410021FA02F1C2F1200200FA6C
:1001C00002FC5FEA310040F1000053EA4C0308BF33
:1001D00020EADC70704792F0000F00F0004C02BF84
:1001E000400010F4000F013AF9D040EA0C0093F0FF
:1001F000000F01F0004C02BF490011F4000F013B59
:10020000F9D041EA0C018FE70CEAD15392EA0C0FC6
:1002100018BF93EA0C0F0AD030F0004C18BF31F031
:10022000004CD8D180EA010000F00040704790F007
:10023000000F17BF90F0004F084691F0000F91F0AB
:10024000004F14D092EA0C0F01D142020FD193EA71
:100250000C0F03D14B0218BF084608D180EA0100F9
:1002600000F0004040F0FE4040F40000704740F0D5
:10027000FE4040F44000704781F0004102E000BFC2
:1002800083F0004330B54FEA41044FEA430594EA56
:10029000050F08BF90EA020F1FBF54EA000C55EA91
:1002A000020C7FEA645C7FEA655C00F0E2804FEA62
:1002B0005454D4EB5555B8BF6D420CDD2C4480EA44
:1002C000020281EA030382EA000083EA010180EA74
:1002D000020281EA0303362D88BF30BD11F0004FC2
:1002E0004FEA01314FF4801C4CEA113102D04042F8
:1002F00061EB410113F0004F4FEA03334CEA133333
:1003000002D0524263EB430394EA050F00F0A7804A
:10031000A4F10104D5F1200E0DDB02FA0EFC22FA45
:1003200005F2801841F1000103FA0EF2801843FA39
:1003300005F359410EE0A5F120050EF1200E012A2A
:1003400003FA0EFC28BF4CF0020C43FA05F3C01868
:1003500051EBE37101F0004507D54FF0000EDCF1E1
:10036000000C7EEB00006EEB0101B1F5801F1BD38A
:10037000B1F5001F0CD349085FEA30004FEA3C0C8E
:1003800004F101044FEA445212F5800F80F09A8084
:10039000BCF1004F08BF5FEA500C50F1000041EB88
:1003A000045141EA050130BD5FEA4C0C404141EB8C
:1003B0000101013C28BFB1F5801FE9D291F0000F87
:1003C00004BF01460020B1FA81F308BF2033A3F136
:1003D0000B03B3F120020CDA0C3208DD02F1140C2D
:1003E000C2F10C0201FA0CF021FA02F10CE002F168
:1003F0001402D8BFC2F1200C01FA02F120FA0CFC61
:10040000DCBF41EA0C019040E41AA2BF01EB0451A9
:10041000294330BD6FEA04041F3C1CDA0C340EDCA7
:1004200004F11404C4F1200220FA04F001FA02F3EA
:1004300040EA030021FA04F345EA030130BDC4F1A8
:100440000C04C4F1200220FA02F001FA04F340EA9D
:100450000300294630BD21FA04F0294630BD94F04E
:10046000000F83F4801306BF81F480110134013D35
:100470004EE77FEA645C18BF7FEA655C29D094EAA6
:10048000050F08BF90EA020F05D054EA000C04BF24
:100490001946104630BD91EA030F1EBF002100200F
:1004A00030BD5FEA545C05D14000494128BF41F0AE
:1004B000004130BD14F580043CBF01F5801130BD12
:1004C00001F0004545F0FE4141F470014FF000009D
:1004D00030BD7FEA645C1ABF194610467FEA655C4E
:1004E0001CBF0B46024650EA013406BF52EA0335F0
:1004F00091EA030F41F4002130BD00BF90F0000FDE
:1005000004BF0021704730B54FF4806404F1320419
:100510004FF000054FF0000150E700BF90F0000FD2
:1005200004BF0021704730B54FF4806404F13204F9
:1005300010F0004548BF40424FF000013EE700BFC9
:1005400042004FEAE2014FEA31014FEA02701FBF59
:1005500012F07F4393F07F4F81F06051704732F08B
:100560007F4208BF704793F07F4F04BF41F40021E2
:10057000704730B54FF4607401F0004521F0004140
:100580001CE700BF50EA010208BF704730B54FF0CA
:1005900000050AE050EA010208BF704730B511F0CB
:1005A000004502D5404261EB41014FF4806404F103
:1005B00032045FEA915C3FF4D8AE4FF003025FEA89
:1005C000DC0C18BF03325FEADC0C18BF033202EB0D
:1005D000DC02C2F1200300FA03FC20FA02F001FA67
:1005E00003FE40EA0E0021FA02F11444BDE600BF0A
:1005F00070B54FF0FF0C4CF4E06C1CEA11541DBFB9
:100600001CEA135594EA0C0F95EA0C0F00F0DEF883
:100610002C4481EA030621EA4C5123EA4C5350EA68
:10062000013518BF52EA033541F4801143F48013B9
:1006300038D0A0FB02CE4FF00005E1FB02E506F04A
:100640000042E0FB03E54FF00006E1FB03569CF09F
:10065000000F18BF4EF0010EA4F1FF04B6F5007FA5
:1006600064F5407404D25FEA4E0E6D4146EB060617
:1006700042EAC62141EA55514FEAC52040EA5E50A0
:100680004FEACE2EB4F1FD0C88BFBCF5E06F1ED84A
:10069000BEF1004F08BF5FEA500E50F1000041EB81
:1006A000045170BD06F0004646EA010140EA02002E
:1006B00081EA0301B4EB5C04C2BFD4EB0C0541EA50
:1006C000045170BD41F480114FF0000E013C00F365
:1006D000AB8014F1360FDEBF002001F0004170BD89
:1006E000C4F10004203C35DA0C341BDC04F11404A2
:1006F000C4F1200500FA05F320FA04F001FA05F22E
:1007000040EA020001F0004221F0004110EBD370FA
:1007100021FA04F642EB06015EEA430E08BF20EA26
:10072000D37070BDC4F10C04C4F1200500FA04F3C9
:1007300020FA05F001FA04F240EA020001F000415B
:1007400010EBD37041F100015EEA430E08BF20EACE
:10075000D37070BDC4F1200500FA05F24EEA020E16
:1007600020FA04F301FA05F243EA020321FA04F045
:1007700001F0004121FA04F220EA020000EBD370FC
:100780005EEA430E08BF20EAD37070BD94F0000FFC
:100790000FD101F00046400041EB010111F4801F30
:1007A00008BF013CF7D041EA060195F0000F18BFE1
:1007B000704703F00046520043EB030313F4801F1D
:1007C00008BF013DF7D043EA0603704794EA0C0FD7
:1007D0000CEA135518BF95EA0C0F0CD050EA4106ED
:1007E00018BF52EA4306D1D181EA030101F000416A
:1007F0004FF0000070BD50EA410606BF1046194692
:1008000052EA430619D094EA0C0F02D150EA01369D
:1008100013D195EA0C0F05D152EA03361CBF1046DE
:1008200019460AD181EA030101F0004141F0FE417D
:1008300041F470014FF0000070BD41F0FE4141F401
:10084000780170BD70B54FF0FF0C4CF4E06C1CEA01
:1008500011541DBF1CEA135594EA0C0F95EA0C0FB6
:1008600000F0A7F8A4EB050481EA030E52EA033571
:100870004FEA013100F088804FEA03334FF0805592
:1008800045EA131343EA12634FEA022245EA1115BF
:1008900045EA10654FEA00260EF000419D4208BF70
:1008A000964244F1FD0404F5407402D25B084FEA1D
:1008B0003202B61A65EB03055B084FEA32024FF4C9
:1008C00080104FF4002CB6EB020E75EB030E22BF26
:1008D000B61A754640EA0C005B084FEA3202B6EBE6
:1008E000020E75EB030E22BFB61A754640EA5C0095
:1008F0005B084FEA3202B6EB020E75EB030E22BF25
:10090000B61A754640EA9C005B084FEA3202B6EB25
:10091000020E75EB030E22BFB61A754640EADC00E4
:1009200055EA060E18D04FEA051545EA16754FEA46
:1009300006164FEAC30343EA52734FEAC2025FEA64
:100940001C1CC0D111F4801F0BD141EA00014FF0F3
:1009500000004FF0004CB6E711F4801F04BF0143C4
:100960000020B4F1FD0C88BFBCF5E06F3FF6AFAEE0
:10097000B5EB030C04BFB6EB020C5FEA500C50F170
:10098000000041EB045170BD0EF0004E4EEA1131F3
:1009900014EB5C04C2BFD4EB0C0541EA045170BDFA
:1009A00041F480114FF0000E013C90E645EA060E3E
:1009B0008DE60CEA135594EA0C0F08BF95EA0C0F6C
:1009C0003FF43BAF94EA0C0F0AD150EA01347FF4B4
:1009D00034AF95EA0C0F7FF425AF104619462CE78B
:1009E00095EA0C0F06D152EA03353FF4FDAE1046EE
:1009F000194622E750EA410618BF52EA43067FF43F
:100A0000C5AE50EA41047FF40DAF52EA43057FF4CE
:100A1000EBAE12E74FF0FF3C06E000BF4FF0010CD9
:100A200002E000BF4FF0010C4DF804CD4FEA410C3D
:100A30007FEA6C5C4FEA430C18BF7FEA6C5C1BD00A
:100A400001B050EA410C0CBF52EA430C91EA030F8B
:100A500002BF90EA020F0020704710F1000F91EAE8
:100A6000030F58BF994208BF90422CBFD8176FEAB6
:100A7000E37040F0010070474FEA410C7FEA6C5C84
:100A800002D150EA013C07D14FEA430C7FEA6C5C8B
:100A9000D6D152EA033CD3D05DF8040B704700BFB7
:100AA0008446104662468C461946634600E000BF05
:100AB00001B5FFF7B7FF002848BF10F1000F01BDD7
:100AC0004DF808EDFFF7F4FF0CBF012000205DF8A2
:100AD00008FB00BF4DF808EDFFF7EAFF34BF012027
:100AE00000205DF808FB00BF4DF808EDFFF7E0FFC0
:100AF00094BF012000205DF808FB00BF4DF808ED11
:100B0000FFF7CEFF94BF012000205DF808FB00BF77
:100B10004DF808EDFFF7C4FF34BF012000205DF859
:100B200008FB00BF4FEA410212F5001215D211D5A1
:100B30006FF47873B3EB625212D94FEAC12343F0DA
:100B4000004343EA505311F0004F23FA02F018BF5C
:100B5000404270474FF00000704750EA013005D125
:100B600011F0004008BF6FF0004070474FF00000E8
:100B7000704700BF4A0011D212F5001211D20DD5F4
:100B80006FF47873B3EB62520ED44FEAC12343F093
:100B9000004343EA505323FA02F070474FF000003D
:100BA000704750EA013002D14FF0FF3070474FF0EC
:100BB0000000704780F0004002E000BF81F000417B
:100BC00042001FBF5FEA410392EA030F7FEA226CF3
:100BD0007FEA236C6AD04FEA1262D2EB1363C1BF83
:100BE000D218414048404140B8BF5B42192B88BFF2
:100BF000704710F0004F40F4000020F07F4018BF15
:100C0000404211F0004F41F4000121F07F4118BF34
:100C1000494292EA030F3FD0A2F1010241FA03FCDC
:100C200010EB0C00C3F1200301FA03F100F00043C4
:100C300002D5494260EB4000B0F5000F13D3B0F18C
:100C4000807F06D340084FEA310102F10102FE2AFB
:100C500051D2B1F1004F40EBC25008BF20F001006B
:100C600040EA03007047490040EB0000013A28BF0A
:100C7000B0F5000FEDD2B0FA80FCACF1080CB2EB8D
:100C80000C0200FA0CF0AABF00EBC250524218430B
:100C9000BCBFD0401843704792F0000F81F40001B0
:100CA00006BF80F400000132013BB5E74FEA410383
:100CB0007FEA226C18BF7FEA236C21D092EA030FEF
:100CC00004D092F0000F08BF0846704790EA010F69
:100CD0001CBF0020704712F07F4F04D1400028BF96
:100CE00040F00040704712F100723CBF00F5000078
:100CF000704700F0004343F0FE4040F400007047AE
:100D00007FEA226216BF08467FEA23630146420259
:100D100006BF5FEA412390EA010F40F4800070476C
:100D20004FF0000304E000BF10F0004348BF404212
:100D30005FEA000C08BF704743F0964301464FF04E
:100D400000001CE050EA010208BF70474FF00003AA
:100D50000AE000BF50EA010208BF704711F00043EB
:100D600002D5404261EB41015FEA010C02BF8446BB
:100D70000146002043F0B64308BFA3F18053A3F51A
:100D80000003BCFA8CF2083AA3EBC25310DB01FA61
:100D900002FC634400FA02FCC2F12002BCF1004FE5
:100DA00020FA02F243EB020008BF20F00100704776
:100DB00002F1200201FA02FCC2F1200250EA4C00CA
:100DC00021FA02F243EB020008BF20EADC70704710
:100DD0004FF0FF3C06E000BF4FF0010C02E000BF07
:100DE0004FF0010C4DF804CD4FEA40024FEA4103A9
:100DF0007FEA226C18BF7FEA236C11D001B052EA5F
:100E0000530C18BF90EA010F58BFB2EB030088BF24
:100E1000C81738BF6FEAE17018BF40F00100704793
:100E20007FEA226C02D15FEA402C05D17FEA236C75
:100E3000E4D15FEA412CE1D05DF8040B704700BFBC
:100E4000844608466146FFE70FB5FFF7C9FF002853
:100E500048BF10F1000F0FBD4DF808EDFFF7F4FF8C
:100E60000CBF012000205DF808FB00BF4DF808ED25
:100E7000FFF7EAFF34BF012000205DF808FB00BF48
:100E80004DF808EDFFF7E0FF94BF012000205DF86A
:100E900008FB00BF4DF808EDFFF7D2FF94BF01201B
:100EA00000205DF808FB00BF4DF808EDFFF7C8FF14
:100EB00034BF012000205DF808FB00BF0348044B4D
:100EC000834202D0034B03B1184770478C000020C7
:100ED0008C000020000000000548064B1B1AD90FAB
:100EE00001EBA301491002D0034B03B1184770472F
:100EF0008C0000208C0000200000000010B5064C83
:100F0000237843B9FFF7DAFF044B13B10448AFF37A
:100F100000800123237010BD8C0000200000000021
:100F20005450000808B5054B1BB105490548AFF3FF
:100F30000080BDE80840FFF7CFBF00BF0000000001
:100F4000900000205450000808B5114B1B78013B5D
:100F5000042B06D8DFE803F00306090C0F0002F0AB
:100F600017F808BD02F058F9FBE702F06FFBF8E74D
:100F700002F04AFCF5E7074B1B78002BF1D0064B3B
:100F80001B78DBB2024A1370024B00221A70E8E7AA
:100F9000B6000020B4000020B500002010B50446C3
:100FA000012803D02046FFF7CFFF10BD00F0FAFD67
:100FB000104B1B782BB90F4B01221A700E4B186087
:100FC000F0E70C4B1B78012BECD10B4B1B68C31AC1
:100FD000B3F5C87F05D9074B01221A70064B18607C
:100FE000E0E70023034A1370034A1360034A1370B7
:100FF000DBE700BFB0000020AC000020B6000020FE
:1010000010B5044600F0CEFD0A4B1B68C31AC72B6F
:101010000AD9084B1860084B00221A80074B1B782E
:101020001BB9204602F07CFD10BD2046FFF7B6FF3D
:10103000FAE700BFA8000020B2000020B6000020A0
:10104000154B834200D07047144B1B78EBB9144BFF
:101050001B889BB201339BB2114A13800F4B1B7844
:10106000002BF0D113889BB21D2BECD90D4B1B78B4
:10107000032B0CD00B4A1378DBB20B490B70052302
:101080001370064B01221A70DDE70023E4E7074BDB
:101090001B78052BEED1D6E7CC000020B400002051
:1010A000B2000020B6000020B50000203901002069
:1010B00072B6FEE710B594B00AAC28220021204693
:1010C00002F002FF00230593069307930893099308
:1010D000019302930393049305230A934FF48033FF
:1010E0000B9301220D920E920222119212934FF451
:1010F000E0131393204600F085FDC0B90F2305933C
:1011000002210691002307934FF48062089209930D
:1011100005A800F0A9FF60B9012301934FF4807383
:10112000029301A801F06CF828B914B010BDFFF7C4
:10113000BFFFFFF7BDFFFFF7BBFF000008B500F0E2
:1011400013FDFFF7B7FF00F02DF800F0A3F800F053
:1011500001F901E002F026FD114B1B78052BFBD8AD
:1011600001A252F823F000BF5511000881110008B8
:10117000871100088D1100089311000899110008CB
:1011800001F05CFEE8E701F075FFE5E702F00CF91D
:10119000E2E702F0F1FBDFE701F0AEFDDCE700BFC4
:1011A000B60000202DE9F04389B004AD002404947A
:1011B000059406940794334B9A6942F010029A61A1
:1011C0009A6902F010020092009A9A6942F0200295
:1011D0009A619A6902F020020192019A9A6942F09A
:1011E00004029A619A6902F004020292029A9A69D0
:1011F00042F008029A619B6903F008030393039B82
:10120000214F012241F63611384601F002FA2246FA
:1012100048F24861384601F0FCF949F67E730493C0
:101220000126059606944FF00308CDF81C80294648
:10123000384601F0DDF880230493DFF85090CDF8B4
:10124000149006962946384601F0D2F80496CDF857
:101250001490069629460E4801F0CAF822464146E7
:10126000062001F031FA062001F03EFA22464146FE
:10127000172001F029FA172001F036FA09B0BDE86D
:10128000F08300BF00100240000801400000211060
:10129000000C014000B583B00023ADF804308DF898
:1012A0000630009319481A4A02604FF0FF3242603C
:1012B000836000F0DBFB00BB15238DF80430202396
:1012C0008DF8053003238DF80630012201A90F485F
:1012D00000F05FFAA0B901228DF800208DF80120FE
:1012E0008DF8022000238DF803306946074800F08E
:1012F00037FB40B903B05DF804FBFFF7D9FEDBE72D
:10130000FFF7D6FEE7E7FFF7D3FEF3E7B8000020CC
:101310000028004002680C4B9A4200D0704700B58C
:1013200083B001F003FA094BDA6942F00062DA6136
:10133000DB6903F000630193019B054B0122C3F8B5
:101340003C2403B05DF804FB00280040001002407C
:101350000000424200B587B0002302930393049338
:101360000593009301931B481B4A026041F61F42FC
:101370004260836042F21072C2600361836101F0D7
:1013800031FBE8B94FF48053029302A9114801F0F0
:1013900061FBC0B900230093019369460D4801F039
:1013A000D9FB98B90B4801F0F5F9002202211E2063
:1013B00001F08AF91E2001F097F907B05DF804FBEF
:1013C000FFF776FEDEE7FFF773FEE3E7FFF770FE59
:1013D000E8E700BFCC0000200008004002680E4B88
:1013E0009A4200D0704700B583B003F50233DA6942
:1013F00042F00402DA61DB6903F004030193019B0C
:10140000002202211E2001F05FF91E2001F06CF97C
:1014100003B05DF804FB00BF00080040FEE7FEE7F4
:10142000FEE7FEE7FEE770477047704708B500F03B
:10143000ADFB164B1B78032B0AD0DAB2052A0FD06E
:10144000012A09D1124B1B7833B101F09FFC03E054
:10145000104B1B78032B00D008BD02F0D9F8FBE736
:101460000D4B1B78012B0AD00B4B1B78032BF3D1B0
:10147000084B1B78032BEFD102F0CAF8ECE7044BC2
:101480001B78002BE8D001F081FCE5E7B6000020D6
:101490001C01002039010020B500002008B5012002
:1014A00001F0BEF808BD08B5802001F0B9F808BD0C
:1014B00008B5024801F0A4F908BD00BFCC00002027
:1014C00082B00E4B9A6942F001029A619A6902F069
:1014D00001020092009ADA6942F08052DA61DB6917
:1014E00003F080530193019B054A536823F0E063A6
:1014F00043F00073536002B0704700BF0010024019
:101500000000014000B5036899691FFA81FED8699F
:101510009A691FFA82FCE64505D0D86980B240EA94
:1015200002405DF804FB80B240EA0140F9E703683D
:10153000186A5B6A9BB243EA00407047002302E0EE
:1015400001330A38C0B20928FAD81B01DBB21843AC
:101550007047030903EB830300F00F0000EB430027
:10156000C0B2704710F0030F14D10D4BA3FB002342
:101570005B09642202FB13039BB26BB9084BA3FB0C
:101580000023DB094FF4C87202FB130080B228B9B4
:1015900001207047002070470120704700207047ED
:1015A0001F85EB5100F5FA6C022921D801EB4103AC
:1015B000C1EBC3011E4BA3FB013102EB510363449A
:1015C00000F2CF7003EB90031A4AA2FB0020A3EBBA
:1015D000501303EBD01304331748A0FB03201A1A4F
:1015E00000EB52008008C0EBC000181AC0B2704770
:1015F00001EB4103C1EBC3010D4BA3FB013102EB36
:101600005103634403EB9C030A4AA2FB0C12A3EBB5
:10161000521303EBD21302330748A0FB03201A1A1C
:1016200000EB52008008C0EBC000181ADEE700BFD4
:10163000398EE3381F85EB51254992242DE9F84373
:101640000746894690F80F80457B867B002403E09F
:101650001E2E15D8013601344C4533D20C2DFAD844
:101660000123AB4041F2AA521342F1D113F4256F8A
:1016700010D113F0040FEED01B2E12D80136EAE77A
:101680000C2D02D001350126E5E708F101080126FD
:101690003546E0E71D2E01D80136DCE7013501268D
:1016A000D9E71C2E04D01D2ED5D101350126D2E755
:1016B0001FFA88F0FFF756FF08B10136CBE7013576
:1016C0000126C8E787F80F80E9B27973F2B2BA73DE
:1016D0004046FFF767FF3873BDE8F88338B5044626
:1016E00000F060FA054623685A6812F0200F07D10F
:1016F00000F058FA401BB0F57A7FF4D9032004E0DB
:101700005A6842F010025A60002038BD38B50446CD
:101710000268536823F01003536000F043FA054653
:1017200023685B6813F0200F07D100F03BFA401BE1
:10173000B0F57A7FF4D9032000E0002038BD38B539
:1017400005460C46FFF7CAFF08B1012038BD2B68DB
:10175000220C9A612B68A4B2DC612846FFF7D6FF01
:101760000028F3D00120F1E738B505460C46FFF715
:10177000B5FF08B1012038BD2B68220C1A622B6816
:10178000A4B25C622846FFF7C1FF0028F3D0012015
:10179000F1E770B5002857D00D460646002955D010
:1017A000037C012B54D00123037402234374BAB980
:1017B0000B784C78C4EB0414A4004FF4616202FB74
:1017C00003448B781C4421463046FFF7B8FF05469A
:1017D000C8B104237374002333740125284670BDF7
:1017E0000878FFF7B6FE4FF4616303FB00F46878F6
:1017F000FFF7AFFEC0EB001004EB8004A878FFF702
:10180000A8FE0444DFE73268536823F00503536001
:101810003046FFF78CFEB0F1FF3F01D0844204D880
:101820000123737400233374D8E700F5A83101F560
:10183000C0713046FFF798FF0028F1D0042373747D
:10184000002333740125C9E70125C7E70125C5E752
:101850000225C3E700286FD02DE9F8430C46154652
:10186000074600296AD003685B6813F0040F02D0B2
:101870000120BDE8F883FFF745FE0646334BA3FB86
:101880000023DB0A4FF4616202FB13023049A1FB23
:1018900002014809C1F347116170C0EB0010A2EBCF
:1018A0008002A2702B4A964210D82370002D4BD094
:1018B0002078FFF743FE20706078FFF73FFE6070EE
:1018C000A078FFF73BFEA0700020D2E7224AA2FBDF
:1018D00003284FEA181808EB4802A3EBC203237051
:1018E0003846FFF724FE8146B0F1FF3F06D086421E
:1018F00002D2A0EB060901E04FF0FF39174B03FBC2
:10190000186631463846FFF71AFFC8B9B9F1FF3FEC
:101910000AD009EB06013846FFF726FF90B9414689
:101920003846FFF78BFEC1E749463846FFF71CFFF4
:101930000028F4D001209CE701207047012098E79F
:10194000012096E7012094E7002092E7C5B3A29119
:10195000898888887F510100ABAAAAAA805101001A
:1019600000285AD038B50D460446002957D0037CCC
:10197000012B56D00123037402234374BAB9CB78E8
:10198000C3734B7843738B788373A27B617BE07B5B
:10199000FFF708FE207328702046FFF7B3FD224BA7
:1019A000984211D8012363740020207438BDC87890
:1019B000FFF7CFFDE0736878FFF7CBFD6073A87881
:1019C000FFF7C7FDA073E0E7184DA5FB00352D0C10
:1019D000174B03FB150529462046FFF7B0FE28B13B
:1019E00004236374002323740120DFE72046FFF7FC
:1019F0009EFDB0F1FF3FD5D0A842D3D200F5A8316B
:101A000001F5C0712046FFF7AFFE0028CAD00423BD
:101A10006374002323740120C8E70120704701206C
:101A2000C4E70220C2E700BF8F5F010007452EC256
:101A300080510100C0B138B505460268536823F0F3
:101A40000803536000F0AEF804462B685B6813F09F
:101A5000080F07D100F0A6F8001BB0F57A7FF4D983
:101A6000032000E0002038BD01207047002850D03E
:101A700010B50446437C4BB1022363742046FFF744
:101A8000D9FF38B104236374012010BD0374FFF73C
:101A900041FCF1E72046FFF721FE28BB226853688E
:101AA00023F007035360A36823B11B4A136B23F091
:101AB00001031363184AD36A23F46073A1680B43CC
:101AC000D3626368B3F1FF3F12D02268C3F30341CE
:101AD000916022689BB2D3602046FFF717FE88B161
:101AE000042363740120D0E7042363740120CCE74E
:101AF000012000F011FC08B1431EE6E704236374E3
:101B00000120C2E70023E37301236373A3736374AB
:101B1000BBE70120704700BF006C004010B50446D1
:101B20000E4B1A784FF47A73B3FBF2F30C4A106839
:101B3000B0FBF3F000F0E6FD68B90F2C01D90120ED
:101B40000AE0002221464FF0FF3000F0BDFD054BBA
:101B50001C60002000E0012010BD00BF1A00002022
:101B6000200000201C00002008B5074A136843F03D
:101B700010031360032000F095FD0020FFF7CEFF57
:101B8000FFF79EFC002008BD00200240034A1168B8
:101B9000034B1B780B441360704700BF14010020F7
:101BA0001A000020014B1868704700BF1401002084
:101BB00038B50446FFF7F6FF0546B4F1FF3F02D003
:101BC000044B1B781C44FFF7EDFF401BA042FAD3E7
:101BD00038BD00BF1A00002082B0084B1B68084ABD
:101BE000A2FB03235B0A00FB03F3019300BF019BED
:101BF0005A1E0192002BF9D102B07047200000203C
:101C0000D34D6210002800F0F18170B582B0044617
:101C1000036813F0010F2CD0994B5B6803F00C03A1
:101C2000042B1DD0964B5B6803F00C03082B12D0DD
:101C30006368B3F5803F41D0002B55D103F1804359
:101C400003F504331A6822F480321A601A6822F409
:101C500080221A6037E08A4B5B6813F4803FE7D03C
:101C6000874B1B6813F4003F03D06368002B00F020
:101C7000BF81236813F0020F75D0814B5B6813F0AE
:101C80000C0F5FD07E4B5B6803F00C03082B54D025
:101C90002369002B00F08A807A4B01221A60FFF73B
:101CA00081FF0546764B1B6813F0020F75D1FFF7D5
:101CB00079FF401B0228F5D903209EE1704A136882
:101CC00043F480331360636843B3FFF76BFF05464B
:101CD0006B4B1B6813F4003FCBD1FFF763FF401B36
:101CE0006428F5D9032088E1B3F5A02F09D0644B0F
:101CF0001A6822F480321A601A6822F480221A606C
:101D0000E1E703F18043A3F53C331A6842F48022F3
:101D10001A601A6842F480321A60D4E7FFF742FF73
:101D20000546574B1B6813F4003FA2D0FFF73AFF5C
:101D3000401B6428F5D903205FE1514B5B6813F425
:101D4000803FA5D14E4B1B6813F0020F03D02369CF
:101D5000012B40F04F814A4A136823F0F803616970
:101D600043EAC1031360236813F0080F33D0A3695B
:101D7000002B5CD0434B0122C3F88024FFF712FFF5
:101D800005463F4B5B6A13F0020F21D1FFF70AFFB4
:101D9000401B0228F5D903202FE1394A136823F0AC
:101DA000F803616943EAC1031360DCE7354B0022A5
:101DB0001A60FFF7F7FE0546314B1B6813F0020F60
:101DC000D1D0FFF7EFFE401B0228F5D9032014E124
:101DD0000120FFF701FF236813F0040F00F0968045
:101DE000274BDB6913F0805F34D1254BDA6942F071
:101DF0008052DA61DB6903F080530193019B012576
:101E0000214B1B6813F4807F26D0E368012B3DD063
:101E1000002B53D103F1804303F504331A6A22F0F7
:101E200001021A621A6A22F004021A6233E0154BA8
:101E30000022C3F88024FFF7B5FE0546104B5B6A0D
:101E400013F0020FC7D0FFF7ADFE401B0228F5D9F3
:101E50000320D2E00025D3E70B4A136843F48073D4
:101E60001360FFF79FFE0646074B1B6813F4807F45
:101E7000CBD1FFF797FE801B6428F5D90320BCE087
:101E80000010024000004242007000405F4A136AA6
:101E900043F001031362E36833B3FFF783FE0646A2
:101EA0005A4B1B6A13F0020F2FD1FFF77BFE801BEA
:101EB00041F288339842F3D903209EE0052B09D0E4
:101EC000524B1A6A22F001021A621A6A22F00402C4
:101ED0001A62E0E74D4B1A6A42F004021A621A6A6B
:101EE00042F001021A62D6E7FFF75CFE0646474B56
:101EF0001B6A13F0020F08D0FFF754FE801B41F25B
:101F000088339842F3D9032077E0E5B9E369002BE1
:101F100072D03E4A526802F00C02082A56D0022BB8
:101F200017D03B4B00221A66FFF73CFE0446374BA6
:101F30001B6813F0007F47D0FFF734FE001B022818
:101F4000F5D9032059E0314AD36923F08053D36196
:101F5000DCE72F4B00221A66FFF724FE05462B4BC9
:101F60001B6813F0007F06D0FFF71CFE401B022801
:101F7000F5D9032041E0236AB3F5803F1AD0234905
:101F80004B6823F47413226A606A024313434B6064
:101F90001F4B01221A66FFF705FE04461B4B1B6808
:101FA00013F0007F0ED1FFF7FDFD001B0228F5D9CD
:101FB000032022E0154A536823F40033A1680B4341
:101FC0005360DCE7002018E0002016E0012B16D05B
:101FD0000E4B5B6803F48031226A914211D103F405
:101FE0007013626A93420ED1002006E00120704710
:101FF000012002E0012000E0002002B070BD0120BD
:10200000FBE70120F9E70120F7E700BF00100240DD
:10201000000042420F4B5B6803F00C02082A01D01B
:102020000D487047C3F383420C49885C13F4803F2A
:102030000BD0084B5B68C3F34043094AD35C064AA4
:1020400002FB00F0B0FBF3F07047064B03FB00F01F
:10205000704700BF0010024000127A008450000850
:102060008050000800093D00002800F0A08070B5F5
:102070000D460446524B1B6803F007038B420BD2FC
:102080004F4A136823F007030B431360136803F0F0
:1020900007038B4240F08D80236813F0020F17D0A6
:1020A00013F0040F04D0474A536843F4E0635360CD
:1020B000236813F0080F04D0424A536843F4605376
:1020C0005360404A536823F0F003A1680B43536008
:1020D000236813F0010F31D06368012B20D0022B4D
:1020E00025D0384A126812F0020F64D035494A6888
:1020F00022F0030213434B60FFF754FD0646314BB9
:102100005B6803F00C036268B3EB820F16D0FFF735
:1021100049FD801B41F288339842F0D9032045E005
:10212000284A126812F4003FE0D101203EE0254A1F
:10213000126812F0007FD9D1012037E0204B1B68D4
:1021400003F00703AB420AD91D4A136823F00703C3
:102150002B431360136803F00703AB422DD12368B0
:1021600013F0040F06D0174A536823F4E063E168C4
:102170000B435360236813F0080F07D0114A5368CC
:1021800023F46053216943EAC1035360FFF742FF20
:102190000C4B5B68C3F303130B4AD35CD8400B4B67
:1021A00018600B4B1868FFF7B9FC002070BD0120C8
:1021B00070470120FAE70120F8E70120F6E700BFA9
:1021C0000020024000100240B05000082000002013
:1021D0001C000020014B1868704700BF2000002041
:1021E00008B5FFF7F7FF044B5B68C3F3C223034A4C
:1021F000D35CD84008BD00BF00100240A8500008C2
:1022000070B582B00446036813F0010F36D03F4B1F
:10221000DB6913F0805F4AD13C4BDA6942F08052AF
:10222000DA61DB6903F080530193019B0125384B90
:102230001B6813F4807F3CD0344B1B6A13F440734B
:1022400013D0626802F440729A420ED02F4A136A89
:1022500023F440702F490126C1F840640026C1F8DC
:102260004064106213F0010F37D1284A136A23F437
:10227000407361680B431362002D3FD1236813F054
:10228000020F06D0214A536823F44043A1680B4350
:102290005360236813F0100F35D01C4A536823F4A1
:1022A0008003E1680B435360002002B070BD00253D
:1022B000BDE7174A136843F480731360FFF772FC9D
:1022C0000646134B1B6813F4807FB5D1FFF76AFCF9
:1022D000801B6428F5D90320E7E7FFF763FC064677
:1022E0000A4B1B6A13F0020FBFD1FFF75BFC801B88
:1022F00041F288339842F3D90320D6E7D36923F01B
:102300008053D361BAE70020CFE700BF001002403E
:10231000007000400000424208B502284ED010284C
:1023200003D0012828D0002052E02B4B5A681868AF
:1023300010F080704CD0C2F383432849C85C12F47B
:10234000803F15D0244B5B68C3F34043244AD25CE2
:10235000244BB3FBF2F303FB00F01F4B5B6813F459
:10236000800F35D14000204BA3FB003040082FE008
:102370001E4B03FB00F0F0E7174B1B6A40F20232E2
:102380001A40B2F5817F24D003F44073B3F5007F87
:1023900004D0B3F5407F09D0002019E00E4A526AFC
:1023A00012F0020FF5D049F6404011E00A4B1868D0
:1023B00010F400300CD04FF2244009E0FFF710FF7A
:1023C000054B5B68C3F3813301335B00B0FBF3F073
:1023D00008BD4FF40040FBE7001002409850000891
:1023E0009450000800127A00ABAAAAAA00093D0086
:1023F00070B582B00024A4469EE07C4DAB4214D060
:102400000CD8A5F58015AB420FD005F57025AB4271
:102410000BD0A5F58015AB421FD106E0744DAB4241
:1024200003D005F58035AB4217D18B68A3B1012BE2
:102430000DD04261082410E0CC680EE0CC68043472
:102440000BE0CC68083408E0CC680C3405E002618D
:10245000082402E0002400E00424BEF1FF0F37D876
:1024600006464FEA8C0233680F25954023EA0503A0
:1024700004FA02F2134333604B6813F0805F59D0C3
:102480005C4B9A6942F001029A619B6903F0010377
:102490000193019B4FEA9C02951C574B53F8256012
:1024A0000CF00305AD000F23AB4026EA0306534BA7
:1024B000984214D003F58063984279D003F5806385
:1024C000984277D003F58063984206D0042307E052
:1024D000061DACF108029200C5E7032300E00023CB
:1024E000AB4033430232444D45F822304B6813F47D
:1024F000801F61D0424A936843EA0E0393604B68A1
:1025000013F4001F5ED03E4AD36843EA0E03D36043
:102510004B6813F4003F5BD0394A536843EA0E031B
:1025200053604B6813F4803F58D0354A136843EA30
:102530000E0313600CF1010C0B6833FA0CF253D04C
:10254000012202FA0CF203EA020E32EA0303F1D18D
:102550004B68122B3FF651AF122B3FF67EAF01A511
:1025600055F823F02B2400083924000843240008E0
:10257000552400085B2400085B2400085B24000845
:102580005B2400085B2400085B2400085B2400082F
:102590005B2400085B2400085B2400085B2400081F
:1025A0005B2400085B2400083D240008492400083F
:1025B000012395E7022393E7114A936823EA0E0368
:1025C00093609CE70E4AD36823EA0E03D3609FE72B
:1025D0000B4A536823EA0E035360A2E7084A1368C4
:1025E00023EA0E031360A5E702B070BD00002210BD
:1025F00000003110001002400000014000080140BE
:10260000000401408368194201D001207047002076
:1026100070470AB101617047090401617047000009
:1026200008B5054B5B69034200D108BD024B5861F8
:10263000FEF7E6FCF9E700BF00040140002808DBD4
:102640000901C9B200F1604000F5614080F8001353
:10265000704700F00F000901C9B2014B19547047CF
:1026600014ED00E000B500F00700C0F1070CBCF16C
:10267000040F28BF4FF0040C031D062B0FD9C31EF7
:102680004FF0FF3E0EFA0CF021EA000199400EFADD
:1026900003FE22EA0E0241EA02005DF804FB002379
:1026A000EEE70000074AD36823F4E0631B041B0C29
:1026B000000200F4E060034343F0BF6343F40033DF
:1026C000D360704700ED00E010B50446054BD868B4
:1026D000C0F30220FFF7C6FF01462046FFF7AEFF1A
:1026E00010BD00BF00ED00E0002807DB00F01F0276
:1026F000400901239340024A42F82030704700BF4E
:1027000000E100E00138B0F1807F0BD24FF0E02310
:102710005861054AF02182F82310002098610722B1
:102720001A6170470120704700ED00E0014B012263
:102730001A62704700000E4210B4036A046A24F063
:1027400001040462846924F0F00C4CEA021223F0C4
:102750000A030B438261036210BC704710B4036A22
:10276000046A24F010040462846924F4704C4CEA76
:10277000023223F0A00343EA01138261036210BC1A
:102780007047836823F070030B4343F007038360B3
:102790007047000090F83D30012B27D1022380F8CC
:1027A0003D300268D36843F00103D3600368114AE7
:1027B000934210D0B3F1804F0DD0A2F594329342E2
:1027C00009D002F58062934205D01A6842F00102F6
:1027D0001A60002070479A6802F00702062A07D0A4
:1027E0001A6842F001021A60002070470120704709
:1027F00000207047002C01407047704770477047B9
:1028000070B504460368DE681D6915F0020F10D02C
:1028100016F0020F0DD06FF002021A610123037748
:1028200003689B6913F0030F5ED0FFF7E6FF0023F8
:10283000237715F0040F12D016F0040F0FD0236881
:102840006FF004021A610223237723689B6913F453
:10285000407F4FD02046FFF7D0FF0023237715F0AD
:10286000080F12D016F0080F0FD023686FF008027F
:102870001A61042323772368DB6913F0030F40D028
:102880002046FFF7BAFF0023237715F0100F12D070
:1028900016F0100F0FD023686FF010021A61082392
:1028A00023772368DB6913F4407F31D02046FFF79C
:1028B000A4FF0023237715F0010F02D016F0010FBB
:1028C0002DD115F0800F02D016F0800F2FD115F00A
:1028D000400F02D016F0400F31D115F0200F02D07A
:1028E00016F0200F33D170BDFFF786FF2046FFF7AB
:1028F00085FF9CE72046FFF77FFF2046FFF77EFF1E
:10290000ABE72046FFF778FF2046FFF777FFBAE7EF
:102910002046FFF771FF2046FFF770FFC9E72368E5
:102920006FF001021A612046FEF78AFBC9E72368AF
:102930006FF080021A61204600F043F9C7E7236870
:102940006FF040021A612046FFF759FFC5E7236880
:102950006FF020021A61204600F032F9C3E7000050
:1029600003681F4A90420AD0B0F1804F07D0A2F509
:102970009432904203D002F58062904203D123F05A
:1029800070034A681343164A90420AD0B0F1804F50
:1029900007D0A2F59432904203D002F580629042B3
:1029A00003D123F44073CA68134323F080034A69B8
:1029B000134303608B68C3620B688362084B9842C1
:1029C0000AD001234361036913F0010F03D00369A7
:1029D00023F00103036170470B690363F1E700BF54
:1029E000002C014040B310B5044690F83D30F3B1DF
:1029F000022384F83D30214651F8040BFFF7B0FF65
:102A0000012384F8463084F83E3084F83F3084F85F
:102A1000403084F8413084F8423084F8433084F800
:102A2000443084F8453084F83D30002010BD80F8F3
:102A30003C30FEF7D3FCDBE70120704710B484681C
:102A400024F47F4C42EA03220A4342EA0C028260E9
:102A500010BC704790F83C30012B78D010B504467C
:102A6000012380F83C30022380F83D3002689368EF
:102A700023F47F4323F0770393600B68602B4CD0E3
:102A800023D8402B54D011D8202B03D00AD80BB117
:102A9000102B05D119462068FFF773FE002028E0AF
:102AA000012026E0302BF5D0012022E0502B0AD166
:102AB000CA6849680068FFF73FFE50212068FFF7A9
:102AC00060FE002015E0012013E0B3F5805F3AD0EE
:102AD000B3F5005F14D0702B37D1CB684A68896892
:102AE0000068FFF7ABFF2268936843F077039360B9
:102AF0000020012384F83D30002384F83C3010BDD1
:102B0000CB684A6889680068FFF798FF2268936875
:102B100043F4804393600020EBE7CA68496800688B
:102B2000FFF71CFE60212068FFF72BFE0020E0E786
:102B3000CA6849680068FFF7FFFD40212068FFF779
:102B400020FE0020D5E70020D3E70120D1E70220B6
:102B50007047000090F83C20012A2CD010B40346A6
:102B6000012280F83C20022280F83D200268506853
:102B7000946820F0700C086840EA0C0050601A68F5
:102B80000E4882420AD0B2F1804F07D0A0F59430AF
:102B9000824203D000F58060824204D124F0800498
:102BA000496821439160012283F83D20002083F889
:102BB0003C0010BC70470220704700BF002C014051
:102BC000704770477047000010B503460C4A0D4926
:102BD0000D48006840B10C4800680344521A934203
:102BE00006D8094A136010BD0748084C0460F2E794
:102BF00001F0B8F90C2303604FF0FF30F3E700BF9A
:102C0000005000200004000018010020A002002055
:102C10000120704708B501F0A5F9162303604FF0B5
:102C2000FF3008BD08B54FF0FF31FFF7F3FFFEE7B7
:102C300070B50C461646002506E0AFF3008021462D
:102C400001F8010B01350C46B542F6DB304670BD8C
:102C500070B50C461646002504E014F8010BAFF3DE
:102C600000800135B542F8DB304670BD4FF0FF30D3
:102C700070474FF400534B600020704701207047AD
:102C800000207047F8B50746002613E0154B5A5D43
:102C9000224102F00102144B33F814101348FFF7DD
:102CA000B8FC0134E4B2062CF0D9114B1B78A3B95F
:102CB0000136F6B20B2E14D80C4C012248F24061BA
:102CC0002046FFF7A6FC354600220A4B33F81610C3
:102CD0002046FFF79EFC0024E5E73846FEF768FF34
:102CE000E6E7F8BDC05000080C00002000080140D5
:102CF000B4000020CC50000810B5002407E0FFF716
:102D0000C1FF4FF07E512046FDF75AFF04461C4993
:102D10002046FEF7ABF888B11A492046FDF7F8F9CE
:102D2000FDF70EFC01F06CFF0022174BFDF760FC75
:102D3000FDF720FF0928E2D80A20E0E7104C07E061
:102D4000FFF7A0FF4FF07E512046FDF737FF044606
:102D500000212046FEF7A8F888B10A492046FDF771
:102D6000D7F9FDF7EDFB01F04BFF0022064BFDF715
:102D70003FFCFDF7FFFE0928E2D80A20E0E710BD7E
:102D8000000020419A9999BE00005940024A1368F8
:102D900001331360704700BF200100202DE9F0418E
:102DA00080460F4600251CE046FA04F202F00102BC
:102DB0001D4B33F814101D48FFF72BFC0134E4B20F
:102DC000062CF1D9012F24D0012D14BF002201229D
:102DD00008211648FFF71DFC0220FEF7E9FE013529
:102DE000EDB2134B1B78AB421CD9104C012248F2B8
:102DF00040612046FFF70DFC00220E4B33F8151002
:102E00002046FFF706FC18F805300B4AD65C002474
:102E1000D6E7022D14BF0022012208210348FFF744
:102E2000F8FBD9E7BDE8F0810C0000200008014064
:102E300070500008040000207450000800B583B0F2
:102E4000002301934A4B1B684A4A934232D84A4AAC
:102E5000A2FB03124FEA923CC2F387304EF6602188
:102E600001FB1C31454AA2FB01C1C1F38711A2FB42
:102E700003C292094FF47A7C0CFB1232404BA3FB45
:102E80000232C2F347128DF804003E4BA3FB01034C
:102E9000DB088DF8053003EB83035800091A8DF821
:102EA00006108DF80720012101A8FFF777FF03B076
:102EB0005DF804FB344A934229D22F49A1FB032138
:102EC000880BC1F387314EF6602202FB10322B4B88
:102ED000A3FB0223C3F387132A4AA2FB01C0C00845
:102EE0008DF8040000EB80004FEA400CA1EB0C01D0
:102EF0008DF80510A2FB0312D2088DF8062002EB14
:102F0000820251005B1A8DF807300221CCE71A4A81
:102F1000A2FB0323C3F38F331C49A1FB0321C1F39D
:102F20004711632900D96321184AA2FB0302520901
:102F3000C2EB021290001B1ADBB2124AA2FB01C0C4
:102F4000C0088DF8040000EB80004FEA400CA1EBB4
:102F50000C018DF80510A2FB0312D2088DF8062093
:102F600002EB820251005B1A8DF8073003219BE7C8
:102F700020010020BF27090073B2E745D34D62103E
:102F80001F85EB51CDCCCCCC80EE3600898888886B
:102F9000012802D0802806D070470023054A13601C
:102FA000054A13707047044A1378B3FA83F35B0938
:102FB0001370F1E7200100201C010020F8B507463E
:102FC00000251AE046FA04F202F00102174B33F82A
:102FD00014101748FFF71DFB0134E4B2062CF1D999
:102FE000012D14BF0022012208211148FFF711FB17
:102FF0000220FEF7DDFD0135EDB20E4B1B78AB4232
:1030000012D90B4C012248F240612046FFF701FB28
:103010000022094B33F815102046FFF7FAFA7B5DC2
:10302000064AD65C0024D9E7F8BD00BF0C0000209A
:10303000000801407050000804000020745000088F
:1030400008B5FEF7AFFD094B1B68C01AB0F5FA7F53
:1030500000D208BD064A1378B3FA83F35B091370F4
:10306000FEF7A0FD014B1860F3E700BF240100202C
:103070002801002000B583B000220192694649482A
:10308000FEF7E8FB484B1B78012B24D0022B55D0D0
:103090009DF80010454BA3FB0102D2088DF80420D7
:1030A00002EB82025000091A8DF805109DF80120EC
:1030B000A3FB0213DB088DF8063003EB83035900F2
:1030C000521A8DF8072001A8FFF778FFFFF7B8FF25
:1030D00003B05DF804FB364B1B78DBB1354B197838
:1030E000324BA3FB0102D2088DF8042002EB8202CE
:1030F0005000091A8DF805102F4A1278A3FB02130D
:10310000DB088DF8063003EB83035900521A8DF863
:103110000720D8E70A238DF804308DF80530264BB8
:103120001A78224BA3FB0213DB088DF8063003EB61
:1031300083035900521A8DF80720C4E71C4B1B78F3
:10314000DBB11C4B1978194BA3FB0102D2088DF897
:10315000042002EB82025000091A8DF80510164A6D
:103160001278A3FB0213DB088DF8063003EB830310
:103170005900521A8DF80720A5E70E4B1A780B4B11
:10318000A3FB0213DB088DF8043003EB8303590023
:10319000521A8DF805200A238DF806308DF8073075
:1031A00091E700BFB80000202A010020CDCCCCCC94
:1031B00028010020240000202901002000B583B050
:1031C000002201A90648FEF745FB9DF80420054BA7
:1031D0001A709DF80520044B1A7003B05DF804FBCB
:1031E000B8000020240000202901002000B583B091
:1031F00001AB0022ADF804208DF806208DF8040004
:103200008DF8051019460348FEF7C3FA03B05DF8C0
:1032100004FB00BFB800002008B5012802D08028B8
:1032200019D008BD1C4B1B782BB1012B09D11A4BAF
:1032300002221A70F5E7184B01221A70FFF7BEFF41
:10324000EFE7154B00221A70144B1978144B1878BD
:10325000FFF7CCFFE5E7104B1B78012B0FD0022BBB
:10326000DFD10E490A7801320E4B83FB020313446F
:103270005B11C3EB0313A2EB83030B70D1E7084987
:103280000A780132084B83FB02039B1003EB4303D4
:10329000A2EBC3030B70C4E72A0100202901002020
:1032A0002400002089888888ABAAAA2A2DE9F04149
:1032B00080460F4600251DE046FA04F202F00102A6
:1032C000264B33F814102648FFF7A3F90134E4B273
:1032D000062CF1D9012F25D0032F33D1012D2AD06F
:1032E000002208211E48FFF794F90220FEF760FC37
:1032F0000135EDB21B4B1B78AB422CD9184C012287
:1033000048F240612046FFF784F90022164B33F85B
:1033100015102046FFF77DF918F80530134AD65CE2
:103320000024D5E7012D14BF0022012208210C48FA
:10333000FFF76FF9D9E70E4B1B780BB90022D0E7E6
:103340000122CEE7022D14BF0022012208210448E9
:10335000FFF75FF9C9E7BDE8F08100BF0C0000206E
:10336000000801407050000804000020745000085C
:103370003001002008B5FEF715FC094B1B68C01A88
:10338000B0F5FA7F00D208BD064A1378B3FA83F38A
:103390005B091370FEF706FC014B1860F3E700BFF2
:1033A0002C0100203001002010B582B000230193D1
:1033B0008D4B1B78012B3BD08B4B1B78022B70D095
:1033C000894B1B78032B00F0A080874B1B78042BC4
:1033D00000F09B80844B1B78052B00F0F58083491F
:1033E0000A78D2B2824BA3FB0202D2088DF80420E5
:1033F0000978C9B2A3FB0102D20802EB8202500095
:10340000091A8DF805107B490A78D2B2A3FB020293
:10341000D2088DF806200A78D2B2A3FB0213DB088B
:1034200003EB83035900521A8DF8072001211CE099
:10343000D9B2714B1B78FBB10A238DF804308DF89B
:1034400005306C480278D2B2694BA3FB0242D20825
:103450008DF806200278D2B2A3FB0203DB0803EB4F
:1034600083035800121A8DF8072001A8FFF71EFFEA
:10347000FFF780FF02B010BD5C480278D2B25C4B0F
:10348000A3FB0242D2088DF804200278D2B2A3FB3B
:103490000203DB0803EB83035800121A8DF80520A2
:1034A000CFE752490A78D2B2514BA3FB0202D208AD
:1034B0008DF804200A78D2B2A3FB0213DB0803EBD9
:1034C00083035900521A8DF805204B4B1B7833B1FA
:1034D0000A238DF806308DF807300121C5E74549EC
:1034E0000A78D2B2424BA3FB0202D2088DF8062022
:1034F0000A78D2B2A3FB0213DB0803EB8303590063
:10350000521A8DF807200121AFE73C4B1A683C4B5B
:103510009A4229D9394B1B683A4AA2FB03239B09DB
:103520003949A1FB03214809C1F34711C0EB001041
:1035300082009A1AD2B22E4BA3FB0140C0088DF82C
:10354000040000EB80004400091B8DF80510A3FB6C
:103550000213DB088DF8063003EB83035900521A7F
:103560008DF80720012180E7244C2168254BA3FB1F
:1035700001218909244AA2FB01025009C2F3471C18
:10358000C0EB001082008A1AD2B22168A3FB0103AB
:103590009B094FF47A7000FB13131C49A1FB031322
:1035A000C3F347138DF804C01149A1FB0201C908F8
:1035B0008DF8051001EB81014800121A8DF80620E4
:1035C0008DF80730022150E70B4B1B7853B90A23C3
:1035D0008DF807308DF806308DF805308DF8043001
:1035E000032142E7032140E73901002025000020A4
:1035F000CDCCCCCC3801002030010020340100209B
:10360000BF270900D34D6210898888881F85EB5138
:103610000A4B1A68013A1A601B6833B9084B052235
:103620001A70084B1B78934200D07047054B032259
:103630001A70054B00221A70F7E700BF3401002012
:1036400039010020B6000020B4000020012802D07B
:1036500080281BD070473E4B1B781BB93C4B012286
:103660001A7070473A4B1B78012B0BD0384B1B78E4
:10367000022B03D0364B1B78032BEBD1344B0022AB
:103680001A707047324B02221A707047304B1B7809
:10369000012B1CD02E4B1B78022B25D02C4B1B78DA
:1036A000002B2ED12B4B1B78C3EB03122A4B1B781C
:1036B00003EB82034FF47A7202FB03F3274A136091
:1036C0001368002BC6D0224B03221A707047214B7F
:1036D0001B781BB91F4B3C221A7070471D4A137888
:1036E000013BDBB2137070471B4B1B781BB91A4BA5
:1036F0003C221A707047184A1378013BDBB21370F2
:103700007047134B1B78032B19D0114B1B78042BDC
:1037100019D00F4B1B78052B9CD10D4B00221A7032
:103720000C4B1B78C3EB03120B4B1B7803EB820390
:103730004FF47A7202FB03F3084A13608AE7044BE2
:1037400004221A707047024B03221A70704700BFA0
:10375000390100202500002038010020340100201C
:10376000F8B50746002612E045FA04F202F001021D
:10377000134B33F814101348FEF74BFF0134E4B237
:10378000062CF1D90220FEF713FA0136F6B20E4BE1
:103790001B78B34212D90B4C012248F240612046FB
:1037A000FEF737FF0022094B33F816102046FEF7CC
:1037B00030FFBB5D064AD55C0024E1E7F8BD00BFE1
:1037C0000C00002000080140705000080400002098
:1037D0007450000808B5FEF7E5F9094B1B68C01ADC
:1037E000B0F5FA7F00D208BD064A1378B3FA83F326
:1037F0005B091370FEF7D6F9014B1860F3E700BFC1
:103800003C01002040010020012802D080281CD06B
:1038100070472D4B1B7883B92C4B1B78022B05D896
:103820002A4A13780133DBB213707047264B01220A
:103830001A70264B00221A707047234B1B78012BFD
:10384000E6D1214B00221A70704710B51E4B1B7831
:103850009BB91E4C2378DBB21D48C35C01331D4A63
:1038600082FB031202F0FC0101EBA202A3EB420374
:103870002278D2B2DBB2835410BD134B1B78012BDC
:1038800007D0114B1B78032BF6D10F4B01221A7076
:10389000F2E70D4B02221A70FEF784F90E4B186006
:1038A00000240E4B1C700CE000F0C8F9084B1B5DA7
:1038B000013390FBF3F203FB1200094B185501345E
:1038C000E4B2032CF0D9D7E72C00002050010020EF
:1038D0002800002067666666440100204101002040
:1038E0004C01002008B5FEF75DF9204B1B78022B38
:1038F00000D008BD1E4B1B7843B91E4B1B68C31A72
:10390000B3F5FA6F02D31A4B01221A70184B1B78C9
:10391000012B15D0164B1B78022B1CD0144B1B7897
:10392000032BE6D1134B1B68C01A41F28733984230
:10393000DFD90F4B04221A700C4B03221A70D8E700
:103940000C4B1B68C31A40F6B7329342E2D9084BBE
:1039500002221A70DEE7074B1B68C31AB3F57A6FB1
:10396000DCD3034B03221A70D8E700BF2C000020E1
:10397000410100204401002010B582B0434B1B7868
:10398000022B1CD000230193404B1A7802F0FF0356
:10399000F2B13E4B1B78022B47D03C4B1B78032BDC
:1039A00065D03B4B1A788DF804205A788DF80520A5
:1039B0009A788DF80620DB788DF8073023E0FFF742
:1039C00091FFDFE7324AD15C324AD1540133DBB296
:1039D000032B0BD8304A12789A42F3D12F4A12782F
:1039E000002AEFD02B4A0A21D154EFE7294B1A784D
:1039F0008DF804205A788DF805209A788DF80620E5
:103A0000DB788DF8073001A8FFF7AAFEFFF7E2FE8A
:103A100002B010BD224AD15C1E4AD1540133DBB240
:103A2000204A14789C42F5D811E00023F8E700F012
:103A300005F91D4A82FB0032C317C3EBA20303EB57
:103A40008303A0EB4303134A13550134E4B2032C60
:103A5000EDD9104B1A788DF804205A788DF805208E
:103A60009A788DF80620DB788DF80730CBE70C4B81
:103A70001A788DF804205A788DF805209A788DF8F8
:103A80000620DB788DF80730BDE700BF2C00002052
:103A900028000020480100205001002040010020A3
:103AA0004C0100204101002067666666F8B50746B4
:103AB000002612E045FA04F202F00102134B33F83B
:103AC00014101348FEF7A5FD0134E4B2062CF1D919
:103AD0000220FEF76DF80136F6B20E4B1B78B342AA
:103AE00012D90B4C012248F240612046FEF791FDAD
:103AF0000022094B33F816102046FEF78AFDBB5D05
:103B0000064AD55C0024E1E7F8BD00BF0C000020A8
:103B100000080140705000080400002074500008A4
:103B200008B5012802D0802827D008BD01211948F6
:103B3000FEF768FD0028F8D1174B1B78013B042BDA
:103B4000F3D8DFE803F003070B0F1300134B012238
:103B50001A70EAE7114B02221A70E6E70F4B0322B4
:103B60001A70E2E70D4B04221A70DEE70B4B0522B8
:103B70001A700B4B01221A70D7E7074A13780133EA
:103B8000DBB213701378052BCFD9134601221A70BC
:103B9000CBE700BF000C014000000020B600002071
:103BA000B400002000B583B0002301930F490A78C8
:103BB000D2B2A3F13333A3FB0202D2088DF8042062
:103BC0000A78D2B2A3FB0213DB0803EB830359008C
:103BD000521A8DF805200A238DF806308DF807302B
:103BE00001A8FFF763FF03B05DF804FB00000020AD
:103BF000FEF7E8FF0B480C490C4A002302E0D458BA
:103C0000C4500433C4188C42F9D3094A094C002328
:103C100001E013600432A242FBD300F0A9F9FDF7E2
:103C20008DFA7047000000208C0000200052000830
:103C30008C000020A0020020FEE70000164B10B50B
:103C40001C68226BB2B9182000F020FA02462063EB
:103C500020B95221114B124800F0B2F91149124B10
:103C6000C0E90013114B002183600B2383810120E5
:103C7000C2E9040113690E48546958430D4901FB18
:103C80000400A3FB0131013340EB0100C2E9043021
:103C900020F0004010BD00BF3C000020E4500008B0
:103CA000FB5000080E33CDAB34126DE6ECDE0500A0
:103CB0002DF451582D7F954C002310B50446C0E9D2
:103CC0000033C0E90433836081814366C28183612C
:103CD000194608225C3000F0F7F80D4B246263624D
:103CE0000C4BA3620C4BE3620C4B23630C4B9C42CA
:103CF00006D003F16802944202D0D0339C4205D131
:103D000004F15800BDE8104000F056B910BD00BFE6
:103D1000413E0008633E00089B3E0008C13E00088B
:103D200054010020024A0349034800F06BB800BF69
:103D300030000020F54200084000002041680C4B94
:103D400010B59942044601D000F0D4FAA168094B9D
:103D5000994202D0204600F0CDFAE168064B994224
:103D600004D02046BDE8104000F0C4BA10BD00BF2A
:103D700054010020BC010020240200200C4B0D4AFD
:103D800010B504211A600C480022FFF795FF0A4B7A
:103D900001221C46092103F16800FFF78DFF04F1A1
:103DA000D0000222BDE810401221FFF785BF00BFFE
:103DB0008C020020253D000854010020014800F03D
:103DC000FCB800BF95020020014800F0F7B800BF22
:103DD0009502002010B50446FFF7F0FF236A1BB1DF
:103DE000BDE81040FFF7F0BF044B2362044B1B6893
:103DF000002BF5D1FFF7C2FFF2E700BF3D3D000801
:103E00008C0200202DE9F843074688461446002618
:103E1000D4E90195B9F1010905D52468002CF7D141
:103E20003046BDE8F883AB89012B07D9B5F90E30D0
:103E3000013303D029463846C04706436835E9E7D1
:103E400010B50C46B1F90E1000F068F80028ABBFB1
:103E5000636DA3891B1823F48053ACBF6365A381F2
:103E600010BD2DE9F0411F468B890546DB050C4648
:103E7000164605D502230022B1F90E1000F03CF8D9
:103E8000A389324623F48053A38128463B46B4F9E4
:103E90000E10BDE8F04100F053B810B50C46B1F972
:103EA0000E1000F029F8B4F90C30421C0BBF23F4BB
:103EB000805343F48053A381A38118BF606510BD74
:103EC000B1F90E1000F008B803460244934200D145
:103ED000704703F8011BF9E738B50023054D044688
:103EE00008462B60FEF7C2FE431C02D12B6803B1CB
:103EF000236038BD9002002038B5044608461146BC
:103F00000022054D2A601A46FEF7BAFE431C02D174
:103F10002B6803B1236038BD9002002038B50446F9
:103F2000084611460022054D2A601A46FEF780FE1B
:103F3000431C02D12B6803B1236038BD90020020DE
:103F400038B50446084611460022054D2A601A4637
:103F5000FEF77EFE431C02D12B6803B1236038BDFF
:103F600090020020014B1868704700BF3C00002001
:103F700070B500260C4D0D4B5B1B9C10A64209D161
:103F8000002601F067F80A4D0A4B5B1B9C10A64205
:103F900005D170BD55F8043B98470136EEE755F85A
:103FA000043B98470136F2E7F8510008F851000841
:103FB000F8510008FC510008704770477047000036
:103FC0001FB514461A46094B05461B68D8684CB104
:103FD000074BCDE9013400912B46064900F0B2F9B8
:103FE00000F0D2F9044B1C46F3E700BF3C00002070
:103FF00054510008615100088F51000838B505463A
:10400000002940D051F8043C0C1F002BB8BFE41825
:1040100000F0E6F81C4A136833B963601460284660
:10402000BDE8384000F0E2B8A34208D92068211862
:104030008B4201BF19685B6809182160EDE71A46D9
:104040005B680BB1A342FAD911685018A0420BD19A
:1040500020680144501883421160E0D118685B6801
:10406000084410605360DAE702D90C232B60D6E7CE
:10407000206821188B4201BF19685B68091821600C
:1040800063605460CBE738BD9C020020024B0146C0
:10409000186800F025B800BF3C00002070B50F4E36
:1040A0000C463168054611B900F05EF930602146D2
:1040B000284600F059F9431C03D14FF0FF34204645
:1040C00070BDC41C24F00304A042F8D0211A284675
:1040D00000F04AF90130F2D1EFE700BF980200206A
:1040E0002DE9F843CD1C25F0030508350C2D38BF0C
:1040F0000C25002D064601DBA94204D90C233360B0
:104100000020BDE8F883DFF8D48000F069F8D8F823
:1041100000301C4644BB29463046FFF7BFFF431C16
:10412000044658D1D8F800402746002F43D1002C30
:104130004BD023683946304604EB030900F014F9EC
:10414000814542D1216830466D1A2946FFF7A6FF06
:1041500001303AD023682B442360D8F800305A68E5
:1041600062BBC8F800700FE02268521B20D40B2AF3
:1041700017D96119A342256018BF5960636808BF49
:10418000C8F8001062514B60304600F02FF804F17F
:104190000B00231D20F00700C21A1CBF1B1AA350DE
:1041A000AFE76268A3420CBFC8F800205A60EBE793
:1041B00023466468AEE73C467F68B6E71A465B680C
:1041C000A342FBD100235360DEE70C23304633606B
:1041D00000F00CF894E70560D6E700BF9C020020D1
:1041E0000148FFF7EABE00BF940200200148FFF734
:1041F000E5BE00BF94020020B1F90C20F8B5160707
:1042000005460C4651D44B68002B02DC0B6C002B8E
:1042100049DDE66A002E46D0002312F480522F6852
:104220002B6031D0626DA389590705D56368D21A16
:10423000636B0BB1236CD21A00232846E66A216A0D
:10424000B047421CB4F90C3006D129681D2945D865
:10425000274ACA40D60741D5002262602269D904A4
:10426000226004D5421C01D12B6803B96065616BE3
:104270002F60C1B104F14403994202D02846FFF7F0
:10428000BDFE002363630EE001232846216AB04788
:104290000246501CC7D12B68002BC4D01D2B01D067
:1042A000162B19D12F6000201DE00F69002FFAD0C6
:1042B000930718BF00230E6808BF4B69F61B0F60F9
:1042C0008B60002EEFDD33463A462846216AD4F84B
:1042D00028C0E047002807DCB4F90C304FF0FF306D
:1042E00043F04003A381F8BD0744361AE9E700BF55
:1042F0000100402038B50B6905460C4613B900256E
:10430000284638BD18B1036A0BB9FFF763FDB4F94D
:104310000C30002BF3D0626ED00704D4990502D480
:10432000A06DFFF74AFE28462146FFF765FF636E42
:104330000546DA07E4D4A3899B05E1D4A06DFFF715
:104340003DFEDDE70EB403B5014603AB054853F867
:10435000042B0068019300F045F802B05DF804EB0F
:1043600003B070473C00002038B50023054D0446DB
:1043700008462B60FEF728FC431C02D12B6803B1D2
:10438000236038BD90020020062008B500F08EFBA7
:104390000120FEF747FC936810B4013B002B9360AB
:1043A00007DA9469A34201DB0A2902D110BC00F0AC
:1043B000C3BA1368581C10601970084610BC7047C7
:1043C000F8B506460F461446D518AC4201D1002078
:1043D00007E03A46304614F8011BFFF7DCFF431CA8
:1043E000F3D1F8BD2DE9F04F0D4614469846064628
:1043F0009DB018B1036A0BB9FFF7ECFC6B6ED907DF
:1044000005D4AB899A0502D4A86DFFF7D6FDAB8918
:104410001B0701D52B699BB92946304600F0CAFA23
:1044200070B16B6EDC0704D54FF0FF301DB0BDE8F6
:10443000F08FAB899805F7D4A86DFFF7BFFDF3E7C0
:104440000023099320238DF8293030234FF00109F0
:10445000CDF80C80DFF8A8818DF82A3023469A46E3
:1044600013F8012B0AB1252AF9D1BAEB040B0BD0B2
:104470005B46224629463046FFF7A2FF013000F096
:10448000A780099A5A4409929AF80030002B00F04C
:104490009F8000234FF0FF32CDE905230AF1010A86
:1044A000049307938DF853301A935446052214F859
:1044B000011B534800F016FB049AD8B9D10644BF3B
:1044C00020238DF85330130744BF2B238DF853302E
:1044D0009AF800302A2B15D0544600204FF00A0CD1
:1044E000079A214611F8013B303B092B4BD9B0B15B
:1044F000079214E0A0EB080309FA03F31343A24662
:104500000493D2E7039B191D1B680391002BBBBFCB
:104510005B4242F0020207930793B8BF04922378EC
:104520002E2B0AD163782A2B32D1039B02341A1D19
:104530001B68039243EAE3730593DFF8C8A00322E4
:104540005046217800F0CEFA38B14022049BA0EB0F
:104550000A00824013430134049314F8011B06221D
:1045600029488DF8281000F0BDFA00283FD0274BCD
:104570001BBB039B073323F0070308330393099BFB
:104580003B4409936AE70C4601200CFB0232A8E782
:1045900000234FF00A0C194601340593204610F809
:1045A000012B303A092A03D9002BC6D00591C4E764
:1045B000044601230CFB0121F0E703AB00932A46DC
:1045C0003046134B04A9AFF300800746781CD6D1C0
:1045D0006B6ED90705D4AB899A0502D4A86DFFF795
:1045E000EDFCAB895B063FF51FAF09981EE703ABF7
:1045F00000932A463046064B04A900F07DF8E4E714
:1046000090510008965100089A51000800000000DF
:10461000C14300082DE9F047164698468A680B69A1
:1046200007469342B8BF1346336091F843200C46C7
:10463000DDF820900AB1013333602368990642BF48
:10464000336802333360256815F0060506D104F19E
:10465000190AE36832689B1AAB422BDC94F84330AA
:104660002268003B18BF0123920630D441463846E9
:1046700004F14302C847013023D02368226903F0C4
:104680000603042B14BF002533684FF0000608BF53
:10469000E56804F11A0408BFED1A54F8123C08BF8B
:1046A00025EAE5759342C4BF9B1AED18B5421AD1AD
:1046B000002008E00123524641463846C8470130F1
:1046C00003D14FF0FF30BDE8F0870135C1E730205E
:1046D000E11881F843005A1C94F845102244023333
:1046E00082F84310C2E70123224641463846C847B4
:1046F0000130E6D00136D9E72DE9FF470F7E91461C
:10470000782F80460C469A460C9E01F1430207D84A
:10471000622F0AD8002F00F0D280582F00F0B78007
:1047200004F1420684F842703AE0A7F16303152BC6
:10473000F6D801A151F823F091470008A5470008D9
:1047400021470008214700082147000821470008A9
:10475000A547000821470008214700082147000815
:1047600021470008A5480008CF4700085B4800081B
:104770002147000821470008C748000821470008D2
:10478000CF47000821470008214700086348000878
:1047900033681A1D1B68326004F1420684F8423007
:1047A00001239DE033682068191D3160060601D59C
:1047B0001D6803E04506FBD5B3F90050002D03DA70
:1047C0002D236D4284F843300A23594810E02168B4
:1047D0003368080653F8045B02D4490648BFADB2FB
:1047E0006F2F5348336059D10823002184F84310B8
:1047F0006668002EA66005DB21682E4321F00401C7
:1048000021604DD01646B5FBF3F103FB1157C75D90
:1048100006F8017D2F46BB420D46F4D9082B0BD17B
:104820002368DF0708D5236961689942DEBF30231A
:1048300006F8013C06F1FF36921B22614B462146E9
:104840004046CDF800A003AAFFF7E4FE01304CD1AA
:104850004FF0FF3004B0BDE8F087236843F0200339
:1048600023607827334884F84570236831681F0631
:1048700051F8045B02D45F0648BFADB23160D9077E
:1048800044BF43F0200323601DB11023ADE7284847
:10489000E9E7236823F020032360F6E70A23A4E76F
:1048A0001646BBE733682568181D616930602E061F
:1048B0001B6801D5196002E06806FBD5198000234A
:1048C00016462361BAE7336800211A1D32601E685C
:1048D0006268304600F006F908B1801B60606368CA
:1048E0002361002384F84330A8E732464946404616
:1048F0002369D0470130ABD023689B0713D4E0680D
:10490000039B9842B8BF1846A4E7012332464946A4
:104910004046D04701309BD00135E36803995B1ACC
:10492000AB42F2DCEBE7002504F11906F5E700BF26
:10493000A1510008B2510008F8B50E4614460546CC
:1049400018B1036A0BB9FFF745FAA369A360A389FD
:104950001A0701D5236943B92146284600F02AF8F1
:1049600018B14FF0FF373846F8BD23682269F6B218
:10497000981A63693746834205DC21462846FFF7CB
:10498000B9FC0028EDD1A368013BA36023685A1C41
:1049900022601E706269431C9A4204D0A389DB071F
:1049A000E1D50A2EDFD121462846FFF7A3FC0028D7
:1049B000D9D0D6E738B5284B054618680C4618B14B
:1049C000036A0BB9FFF706FAB4F90C301A0721D4C1
:1049D000D80607D409222A6043F040034FF0FF3085
:1049E000A38130E0590712D5616B41B104F1440352
:1049F000994202D02846FFF701FB0023636300229F
:104A0000B4F90C306260226923F02403226043F081
:104A10000803A38122693AB99A0501D5180603D57E
:104A20002146284600F090F8B4F90C3013F001024A
:104A30000AD00022A26062695242A261226942B990
:104A400013F08000C8D138BD990758BF6269A260D1
:104A5000F4E70020F7E700BF3C0000201F2938B52D
:104A600005460C4604D9162303604FF0FF3038BDCD
:104A7000C26B12B152F821304BB9284600F030F821
:104A8000224601462846BDE8384000F017B8012B01
:104A90000AD0591C03D1162303600120E7E7002147
:104AA000204642F8241098470020E0E7024B0146D8
:104AB0001868FFF7D3BF00BF3C00002038B50023C3
:104AC000064D0446084611462B60FEF7A3F8431C2A
:104AD00002D12B6803B1236038BD00BF90020020D3
:104AE000FEF796B8034610B5C9B202449342184681
:104AF00001D1002003E0047801338C42F6D110BDCF
:104B000070B50C46B1F90E10154600291E4696B038
:104B10000ADAA18911F0800113D14FF480620020DC
:104B200031602A6016B070BD6A4600F047F8002870
:104B3000EFDB019901F47041A1F50053594259414D
:104B4000EBE700214022EAE78B8973B59E07054613
:104B50000C4607D504F147032360236101236361F9
:104B600002B070BD01AB6A46FFF7CAFF009E28463F
:104B70003146FFF7B5FAB4F90C3038B99A05EFD4DD
:104B800023F0030343F00203A381E3E743F0800330
:104B9000A381019BC4E904062060002BE0D02846D5
:104BA000B4F90E1000F01CF80028D9D0A38923F026
:104BB000030343F00103A381D2E7000038B50023CB
:104BC000064D0446084611462B60FEF752F8431C7A
:104BD00002D12B6803B1236038BD00BF90020020D2
:104BE00038B50023054D044608462B60FEF746F80D
:104BF000431C02D12B6803B1236038BD9002002012
:104C0000F8B504460D4600F03BF806460F46204630
:104C1000294600F02FF878B111A3D3E900232046EC
:104C20002946FBF775FF50B90FA3D3E900232046AF
:104C30002946FBF74FFF58B930463946F8BDFFF714
:104C400091F9002622230A4F036039463046F8BD09
:104C5000FFF788F92223002600270360ECE700BF56
:104C6000EF39FAFE422E864051302DD5104987C0CB
:104C70000000F07F41F0004000F58010C00F704749
:104C80002DE9F047D24F21F00042BA4204460D46CA
:104C900086B04FEAD1760DD9CE4FBA426FD9C1F363
:104CA00013030343024640F04781002E64D00020E6
:104CB000002161E0C84B9A4200F21281C74B9A4230
:104CC00040F2278122462B4620462946FBF790FCDE
:104CD000A9A3D3E9002306460F46FBF789FCA8A346
:104CE000D3E90023FBF7CCFA32463B46FBF780FCC6
:104CF000A5A3D3E90023FBF7C5FA32463B46FBF7F1
:104D000077FCA3A3D3E90023FBF7BAFA32463B466C
:104D1000FBF76EFCA0A3D3E90023FBF7B3FA3246FE
:104D20003B46FBF765FC02460B4620462946FBF74F
:104D3000A7FACDE90201DDE90289204642464B4649
:104D40002946FBF755FC002206460F464FF08043EC
:104D500040464946FBF794FA02460B463046394630
:104D6000FBF770FD22462B46FBF78AFA02460B46FC
:104D700000209B49FBF784FA06B0BDE8F08788A3C2
:104D8000D3E90023FBF7C4FE0746002840F0DA8091
:104D900085A3D3E9002320462946FBF79BFE002884
:104DA00040F0E2808F4B204603EBC606294680A3E5
:104DB000D3E90023FBF71CFCD6E90023FBF762FADA
:104DC000FBF7B0FE8246FBF7A9FB7BA3D3E90023E8
:104DD00006460F46FBF70CFC02460B4620462946CA
:104DE000FBF74EFA76A3D3E9002380468946304686
:104DF0003946FBF7FDFBCDE90001DDE90023404624
:104E00004946FBF73DFA02460B4604460D46FBF7C2
:104E1000EFFB59A3D3E9002306460F46FBF7E8FB57
:104E200057A3D3E90023FBF72BFA32463B46FBF7A7
:104E3000DFFB55A3D3E90023FBF724FA32463B46B8
:104E4000FBF7D6FB52A3D3E90023FBF719FA32464E
:104E50003B46FBF7CDFB50A3D3E90023FBF712FA47
:104E600032463B46FBF7C4FB02460B46204629462A
:104E7000FBF706FA06460F462046294632463B46D1
:104E8000CDE90267FBF7B4FBCDE90401BAF1000FED
:104E90003FF451AF32463B4600204FF08041FBF7D4
:104EA000EFF902460B46DDE90401FBF7CBFC0246B5
:104EB0000B46DDE90001FBF7E3F942464B46FBF701
:104EC000DFF90B46024646490020FBF7D9F96FF49B
:104ED0007F739A453CDB01EB0A5106B0BDE8F087D1
:104EE000414B9A423FF65EAF404BF40003EBC603E2
:104EF000D3E90023FBF7C4F93D4B86F0010A2344B4
:104F0000D3E9003480468946CDE90034AAEB060A8D
:104F100073E72DA3D3E90023FBF7B4F90022304B4C
:104F2000FBF7F6FD00283FF4CDAE002220462946CF
:104F30002B4BFBF7A7F91FE70B46FBF7A3F906B0CE
:104F4000BDE8F087002006B0BDE8F04700F07CB86F
:104F50000AF57A7A00224FF0B87301EB0A51FBF799
:104F600047FB06B0BDE8F087384606B0BDE8F0471D
:104F700000F064B8AFF30080D0A4BE726937663E1B
:104F8000F16BD2C541BDBB3E2CDE25AF6A56113F49
:104F900093BDBE166CC1663F3E5555555555C53F30
:104FA000EF39FAFE422E864051302DD5104987C088
:104FB000FE822B654715F73F0000E0FE422EE63FDC
:104FC000763C7935EF39EA3D9C7500883CE4377EC4
:104FD000412E8640FFFFEF7F422ED63FFFFFEF3D81
:104FE0000000F03FE8510008B1A2F03FD85100089E
:104FF000C8510008D0B506460F461446FEF7B2FF6A
:105000000346394630461C60D0BD00BF00B583B0B2
:1050100080B1104603F10041CDE900011046194668
:10502000DDE90023FBF7E4FA222203B05DF804EB8C
:10503000FFF7E0BF10461946EEE700BF00224FF031
:105040008053FFF7E3BF00BF00224FF0E043FFF7BC
:10505000DDBF00BFF8B500BFF8BC08BC9E46704776
:0C506000F8B500BFF8BC08BC9E467047C5
:10507000040000003F065B4F666D7D077F6F0000F8
:105080000102000002030405060708090A0B0C0DC3
:105090000E0F1010010200000203040506070809A4
:1050A0000A0B0C0D0E0F101000000000010203048B
:1050B00000000000000000000102030406070809C8
:1050C0000101010102040808080810200080000402
:1050D0000002400040004000400000020004008048
:1050E000008000805245454E54206D616C6C6F63AA
:1050F00020737563636565646564002F6461746122
:105100002F6A656E6B696E732F776F726B73706148
:1051100063652F474E552D746F6F6C636861696EC0
:105120002F61726D2D31342F7372632F6E65776C22
:1051300069622D63796777696E2F6E65776C696236
:105140002F6C6962632F7374646C69622F72616E75
:10515000642E63002C2066756E6374696F6E3A204E
:1051600000617373657274696F6E2022257322204B
:105170006661696C65643A2066696C6520222573F6
:10518000222C206C696E65202564257325730A0026
:10519000232D302B2000686C4C0065666745464720
:1051A00000303132333435363738394142434445A3
:1051B0004600303132333435363738396162636412
:1051C0006566000000000000763C7935EF39EA3D65
:1051D000763C7935EF39EABD0000E0FE422EE63F2D
:1051E0000000E0FE422EE6BF000000000000E03FAD
:0851F000000000000000E0BF18
:0451F800250F000877
:0451FC00FD0E00089C
:1052000001000000008000040002400000100001C6
:10521000100004000200000820000100100000003F
:1052200000127A000C0200000606060601000000CB
:105230000000000003000000540100204000002096
:105240000000000054010020BC01002024020020C6
:10525000000000000000000000000000000000004E
:10526000000000000000000000000000000000003E
:10527000000000000000000000000000000000002E
:0C52800000000000000000000000000022
:0400000508003BF1C3
:00000001FF
